:10000000EBC0000013C1000011C100000FC10000CF
:100010000DC100000BC1000009C1000007C10000B4
:1000200005C1000003C100000C9429140C94A6140F
:10003000FDC00000FBC00000F9C00000F7C00000D8
:10004000F5C000000C94460EF1C00000EFC00000A7
:10005000EDC00000EBC00000E9C000000C94861366
:10006000E5C00000E3C00000E1C00000DFC0000008
:10007000DDC00000DBC00000D9C00000D7C0000018
:100080000C94730ED3C00000D1C00000CFC000009C
:10009000CDC00000CBC00000012902290429082995
:1000A0001029202940298029012C022C0126022612
:1000B000042608261026202640268026402C802C48
:1000C0000123022304230823102320234023802319
:1000D0000120022004200820102020204020802021
:1000E000102C202C012F022F042F082F102F202F2F
:1000F000402F802F7EFE7EFD7EFB7EF77EEF7EDF33
:100100007EBF7E7F00010000B50112000200007278
:100110000143000300006E010401030904540118A7
:10012000020309043C0116030309042E010C0C030D
:100130003100320033003400350000001603550052
:100140005300420020005300650072006900610006
:100150006C00000018035400650065006E00730019
:1001600079006400750069006E006F0000000403F0
:10017000090409024300020100C032090400000121
:1001800002020100052400100105240100010424DD
:100190000206052406000107058203080040090441
:1001A0000100020A000000070503024000000705E5
:1001B00084024000001201000202000020C01683E9
:1001C000040001010203010001C102018036018126
:1001D0003600E70BC91A540C11241FBECFEFD0E232
:1001E000DEBFCDBF12E0A0E0B1E0E6EDFBE300E052
:1001F0000BBF02C007900D92A235B107D9F723E0DB
:10020000A2E5B2E001C01D92A931B207E1F710E00A
:10021000CBEED0E004C02197FE010E94511DC93EE3
:10022000D107C9F70E94E2180C94DF1DE9CEFB014B
:1002300001900020E9F73197AF01461B570BDC0115
:10024000ED91FC910280F381E02D09940C94241728
:10025000CF93DF931F92CDB7DEB76983DC01ED91B9
:10026000FC910280F381E02D41E050E0BE016F5F20
:100270007F4F09950F90DF91CF9108956BE587E04F
:1002800093E0E6CF6BE587E093E0E2CF4F925F9299
:100290006F927F928F929F92AF92BF92CF92DF9296
:1002A000EF92FF92FC01EB59FF4F80809180A2807A
:1002B000B380C084D184E284F384769640805180F8
:1002C000628073806FE071E087E093E0B0DF22E04E
:1002D00030E0B501A40187E093E0B8DF6DE171E0A3
:1002E00087E093E0A4DF22E030E0B701A60187E0D9
:1002F00093E0ACDF60E371E087E093E098DF22E019
:1003000030E0B301A20187E093E0A0DF6DE787E072
:1003100093E0FF90EF90DF90CF90BF90AF909F90D1
:100320008F907F906F905F904F9092CF0297AECF5B
:100330000F931F93CF93DF931F92CDB7DEB78C013E
:10034000FC016083718381E090E0938382839583D5
:1003500084831782168288E090E0918780871386D5
:10036000128680E190E069830E94E818F801978383
:100370008683158616861786108A809100019091D3
:1003800001019C012F5F3F4F309301012093000139
:10039000928B818B6981862F0F90DF91CF911F9176
:1003A0000F910C947011EF92FF920F931F93CF93C4
:1003B000DF93EC01E881F981FF270E9495128F01FC
:1003C00011278C819D810817190779F00FB6F894D1
:1003D0008091FC029091FD02A091FE02B091FF027B
:1003E0000FBE8D879E87AF87B88B0FB6F89480912C
:1003F000FC029091FD02A091FE02B091FF020FBE9F
:100400004D855E856F857889841B950BA60BB70B90
:10041000C397A105B10548F41D830C83DF91CF91EB
:100420001F910F91FF90EF9008958A819B8108178B
:10043000190791F31B830A83EE80FF808A859B85D1
:10044000880F991F2E813F81820F931FE816F906AE
:1004500019F3D7018D919D917D01DC01ED91FC9106
:100460004A815B8169897A890190F081E02D099543
:10047000E5CF0F931F93CF93DF932E9A8091800047
:100480008F7D8093800084E18150F1F72E988091D8
:1004900080008F7D8093800028EB3BE040E050E0BF
:1004A00061E089E10E940F160E94DF1B20E030E02E
:1004B00048E652E40E94461B8B01D82FC92F20E04A
:1004C00030E0A9010E94421B81110DC0259A2D9890
:1004D000809180008F778093800082E08150F1F7D7
:1004E00025982D980BC020E030E040E851E4B80199
:1004F0008D2F9C2F0E94911C181624F400E010E010
:10050000D0E8C1E498014D2F5C2F60E070E080E8F6
:1005100091E40E94DD1ADF91CF911F910F91089510
:10052000CF92DF92EF92FF92CF93DF93EC018E8117
:10053000882351F0EC81FD8182819381A481B58172
:1005400088839983AA83BB8320E030E040E952E4AA
:10055000688179818A819B810E94951C20E030E02E
:1005600040E151E40E94DE1A6B017C0120E030E0A2
:1005700040E151E40E94421B87FD11C020E030E0C1
:1005800042EA52E4C701B6010E94911C18166CF4AD
:10059000C12CD12C82EAE82E82E4F82E06C0C12CB0
:1005A000D12C90E1E92E91E4F92EC701B6010E9409
:1005B000AE1BCE010796DF91CF91FF90EF90DF90B9
:1005C000CF900C94900FFC0160837183862F0C9464
:1005D0005F11DC01ED91FC91FF27062E0C9499111F
:1005E00008950F931F93CF93DF93EC016DE587E0A0
:1005F00093E02EDE8E0106561F4F60E0C801E9DF52
:1006000061E0C8010296E5DFFE01ED59FF4F81E090
:1006100090E091838083CF57DF4F8883DF91CF9124
:100620001F910F9108950297DCCFCF92DF92EF9246
:10063000FF920F931F93CF93DF938C010D591F4FA0
:10064000D801ED90FC90E114F10499F4FC01E25B17
:10065000FF4F208131816217730709F07AC0EC01E6
:10066000CB57DF4F83E090E09B878A87998388830D
:1006700070C0B1E0EB16F10409F06BC0EC0188A585
:1006800099A568177907C9F4452B69F461E0CE0193
:1006900082569F4F9EDFC558DF4F1E8218821982F7
:1006A0001A821B8256C060E0CE0182569F4F91DFB6
:1006B000CF57DF4F81E088834CC08D899E896817B2
:1006C000790771F4452B79F7C558DF4F1E8280E01A
:1006D00090E0A0E8BFE388839983AA83BB8339C0F5
:1006E0008BAD9CAD68177907A1F56E01EAE9CE0ED6
:1006F000D11C61E0C6016DDF60E0C601029669DFD2
:10070000D8011D921C92FE01EB57FF4F16821782F3
:1007100010861186F386E28611821082CF56DF4F53
:10072000088119818C819D81880F991F28813981C9
:10073000820F931F0817190761F0F80181919191B9
:100740008F01DC01ED91FC910190F081E02D099584
:10075000E9CFDF91CF911F910F91FF90EF90DF9044
:10076000CF900895CF92EF920F93CF93DF93EC0148
:1007700066E270E028DF67E270E0CE01029623DFD8
:1007800068E270E0CE0104961EDF69E270E0CE01FF
:10079000069619DF6AE270E0CE01089614DF2A9609
:1007A00085E0C82E94E0E92E03E022E041E060E01D
:1007B000CE010E94790D20E042E060E1CE010E946E
:1007C000E90C67E471E0CE0132DD41E060E0CE018A
:1007D0000E94D00C6BE471E0CE01DF91CF910F91BC
:1007E000EF90CF9024CDCF92DF92EF92FF920F93B4
:1007F0001F93CF93DF93DC011A962D913C911B97A9
:10080000243031050CF090C1EC018881998100976A
:1008100009F044C08B899C8961E00696DADE8B89F9
:100820009C8960E00496D5DE8B899C8960E00896FF
:10083000D0DE8E819F81A885B9850097A105B1057D
:10084000D9F40FB6F8948091FC029091FD02A0912A
:10085000FE02B091FF020FBE88579C4EAF4FBF4FB4
:100860008E839F83A887B987EA81FB8116821082D5
:1008700011821282138258C10FB6F8944091FC0283
:100880005091FD026091FE027091FF020FBE481769
:1008900059076A077B0708F4B6C0EDC0813091059F
:1008A00009F040C08B899C8960E0069692DE8B89B6
:1008B0009C8961E004968DDEEC81FD8120E030E0D2
:1008C00040E251E460817181828193810E94421BE8
:1008D00087FF05C01E821F821886198694C08E81EC
:1008E0009F81A885B9850097A105B10509F4D1C0FC
:1008F0000FB6F8944091FC025091FD026091FE0207
:100900007091FF020FBE481759076A077B0708F46A
:100910000BC11E821F821886198682E090E099839F
:10092000888302C18230910509F085C08B899C893A
:1009300061E006964EDE8B899C8960E0049649DE74
:100940008E819F81A885B9850097A105B10509F021
:100950004AC0EC81FD81C080D180E280F38020E03C
:1009600030E040E850E4C701B6010E94911C18161F
:100970000CF08FC020E030E040E151E4C701B60147
:100980000E94421B1816B4F46A857B85072E000C62
:10099000880B990B0E94E11B2BEA3AEA4AEA5EE3D4
:1009A0000E94951CEA81FB81168260837183828399
:1009B0009383BAC00C851D8588899989880F991FF2
:1009C0002C853D85820F931F08171907E9F2F8015E
:1009D000819191918F01DC01ED91FC910280F38175
:1009E000E02D0995E9CF0FB6F8944091FC025091A3
:1009F000FD026091FE027091FF020FBE4817590779
:100A00006A077B07A8F40A80DB81C02D20E030E074
:100A1000A901688179818A819B810E94911C1816A5
:100A20000CF082C01E82188219821A821B827CC03E
:100A300083E090E074CF8330910501F523303105D8
:100A4000B1F48B899C8961E00696C3DD8B899C8912
:100A500060E00496BEDD8B899C8961E00896B9DD73
:100A60001E821F821886198684E090E058CF2F5F7F
:100A70003F4F3B872A8781E090E051CF049709F0F0
:100A800053C08E819F81A885B9850097A105B105C6
:100A9000A1F40FB6F8948091FC029091FD02A09110
:100AA000FE02B091FF020FBE88579C4EAF4FBF4F62
:100AB0008E839F83A887B98737C00FB6F89440917B
:100AC000FC025091FD026091FE027091FF020FBE88
:100AD000481759076A077B0738F18B899C8960E0C2
:100AE000069677DD8B899C8960E0089672DD85E04B
:100AF00090E0998388830C851D8588899989880F62
:100B0000991F2C853D85820F931F0817190761F0E7
:100B1000F801819191918F01DC01ED91FC910480AC
:100B2000F581E02D0995E9CFDF91CF911F910F91CC
:100B3000FF90EF90DF90CF900895CF92DF92EF92E9
:100B4000FF920F931F93CF93DF938C01FC01ED591C
:100B5000FF4F80819181E801C656DF4F81309105BA
:100B600029F460E0CE0135DD61E006C0892B39F45F
:100B700061E0CE012EDD60E0CE0102962ADDC801E3
:100B8000049611DCC80147960EDCC8018A960BDC7E
:100B9000C801CD9608DCC801805B9F4F04DCF801DA
:100BA000EB59FF4FC080D180E280F3802A9640E06D
:100BB00063E0CE01F5D622E030E0B701A601CE0118
:100BC00045DB6FE471E0CE0132DBF801E558FF4F01
:100BD000C080D180E280F38041E063E0CE01E0D6C6
:100BE00020E030E048EC52E4C701B6010E94951CB9
:100BF000AB01BC0122E030E0CE0128DB67E571E00B
:100C0000CE01DF91CF911F910F91FF90EF90DF9078
:100C1000CF900DCBFC01808191810C94EA18CF9389
:100C2000DF93EC0185E691E09983888385E791E085
:100C30009B838A838091520290915302009739F0EE
:100C4000DC01ED91FC910480F581E02D0995FE0118
:100C5000EF56FF4F808191810E94EA18CE018A5A97
:100C60009F4FD8DFCE018D5B9F4FD4DFCE01C09662
:100C7000D1DFCE014D96CEDFCE010A96DF91CF9126
:100C8000C9CFCF93DF93EC01CADFCE01DF91CF91C3
:100C90000C94EA18CF92DF92EF92FF920F931F937A
:100CA000CF93DF93EC018C819D818C010F5F1F4FEF
:100CB0008017910708F048C07B012A813B812017EB
:100CC000310758F509962817390738F5C880D980B3
:100CD0009B838A83880F991F0E94E81899838883D1
:100CE0008C819D81D60140E050E04817590791F072
:100CF000E881F9819A01220F331FE20FF31F309729
:100D000029F02D913C911197318320834F5F5F4FE4
:100D10001296EBCFC6010E94EA188C819D819C013E
:100D2000220F331F8017910790F4E881F981E20FB9
:100D3000F31F309729F0D7014D915C915183408387
:100D400001962E5F3F4FEECF0817190710F41D8351
:100D50000C83DF91CF911F910F91FF90EF90DF9067
:100D6000CF9008952F923F924F925F926F927F9211
:100D70008F929F92AF92BF92CF92DF92EF92FF92AB
:100D80000F931F93CF93DF9300D0CDB7DEB78C01C5
:100D900085E691E0D80111969C938E9385E791E0CA
:100DA00013969C938E93129764E170E0C8010496A9
:100DB000BFDA65E170E0C8014796BADA66E170E033
:100DC000C8018A96B5DA3801BDE36B0E711C67E184
:100DD00070E0C301ADDA4801E0E58E0E911C68E1D8
:100DE00070E0C401A5DAF801ED59FF4F22242394E5
:100DF000312C318220826801F5E6CF0ED11CD6015C
:100E00001D921D921D921C921397F6011482158259
:100E10001682178218961D921D921D921C921B9786
:100E20001486158616861786269A25982D9870960C
:100E3000D182C082128213821482158258012BE75C
:100E4000A20EB11CD5011D921D921D921C921397EA
:100E50001596FC93EE93149781E016968C9375018A
:100E6000B7E0EB0EF11CC7016BD767E070E0C7017C
:100E70000E94580FC50154DB2801EAE94E0E511CAF
:100E80007801F5E8EF0EF11C85E090E0D7011196AE
:100E90009C938E931396BC92AE9212971596DC9209
:100EA000CE921497F7011682178210861186338628
:100EB00022866801F1E9CF0ED11CD60111961C9251
:100EC0001E9288E090E013969C938E93129715964D
:100ED0001C921E92149780E190E00E94E818F6019F
:100EE00091838083D70154965C924E925397C201AE
:100EF00039DC40E855E260E070E087E093E00E9472
:100F0000621A1A830983BE016F5F7F4FC8014D9635
:100F1000C1DE1A830983BE016F5F7F4FC8010A9645
:100F2000B9DE1A830983BE016F5F7F4FC801C09687
:100F3000B1DE1A830983BE016F5F7F4FC30106963E
:100F4000A9DE1A830983BE016F5F7F4FC401069635
:100F5000A1DEF801EB56FF4F808191817C01BFEF4C
:100F6000EB1AFB0A8E159F0508F055C0F601228189
:100F700033812E153F0588F509962817390768F53E
:100F8000A080B18093838283880F991F0E94E81804
:100F9000D60111969C938E9314968D919C911597E2
:100FA000D50140E050E048175907A1F0F6016081F3
:100FB00071819A01220F331FFB01E20FF31F30975B
:100FC00029F02D913C911197318320834F5F5F4F22
:100FD0001296E9CFC5010E94EA18D60114968D91A8
:100FE0009C9115979C01220F331F0E5F1F4F8E158A
:100FF0009F0568F4D601ED91FC91E20FF31F309745
:1010000011F01183008301962E5F3F4FF0CFF60160
:10101000F582E48205C0E816F90610F4F182E08258
:101020000F900F90DF91CF911F910F91FF90EF9054
:10103000DF90CF90BF90AF909F908F907F906F90F8
:101040005F904F903F902F900895CF93DF938091C2
:10105000520290915302892B51F48BEB90E00E9445
:10106000E818EC017FDED0935302C09352028091C6
:10107000520290915302DF91CF910895E6CF8F9263
:101080009F92AF92BF92CF92DF92EF92FF920F9317
:101090001F93CF93DF93D9DFEC01CB59DF4F0FB60E
:1010A000F8948090FC029090FD02A090FE02B09017
:1010B000FF020FBE88819981AA81BB818C839D83A9
:1010C000AE83BF8309E110E0C12CD12C760165E02D
:1010D00070E080E090E00E94C613CE01CAD99B0167
:1010E000AC01C701B6010E94DE1A6B017C01015000
:1010F000110969F720E030E048EC51E40E94461BFA
:10110000688379838A839B832C813D814E815F81B3
:101110000E94DD1A6B017C018C859D85AE85BF85A3
:10112000A5019401281B390B4A0B5B0BCA01B901BD
:101130000E94DF1B9B01AC01C701B6010E94461B48
:1011400020E030E04AE754E40E94951C68877987E4
:101150008A879B878C869D86AE86BF8676DFEDDC90
:1011600074DFEC01FC01ED59FF4F80819181019703
:1011700009F03CC06FE071E087E093E058D88E0141
:101180000B591F4FF801408151816281738122E028
:1011900030E087E093E05AD86DE171E087E093E0BA
:1011A00046D8F801408551856285738522E030E09C
:1011B00087E093E04BD86FE571E087E093E037D8A4
:1011C00087E093E00E94EC18079784F087E093E0B3
:1011D0000E94A1186B017C0187E093E00E94C81A6D
:1011E000C958DF4FC882D982EA82FB822EDFEC0128
:1011F00085589F4F95D9CE018B579F4FDF91CF9147
:101200001F910F91FF90EF90DF90CF90BF90AF9024
:101210009F908F90E8CA1F93CF93DF93182FC091B0
:101220005402D09155028A3041F4E881F98101904D
:10123000F081E02D6DE0CE010995E881F981019002
:10124000F081E02D612FCE01099521E030E001977A
:1012500011F420E030E0C901DF91CF911F91089592
:10126000CF93DF93C0915402D0915502E881F98168
:101270000084F185E02DCE010995892BB9F3E88131
:10128000F9810284F385E02DCE01DF91CF9109949D
:1012900008950895089580E090E0089580E090E03A
:1012A000089580E090E0089580E090E00895DC01EA
:1012B00050968D919C915197DC01ED91FC910084A9
:1012C000F185E02D0994AF92BF92CF92DF92EF9219
:1012D000FF920F931F93CF93DF9300D000D0CDB731
:1012E000DEB78C015B01C12CD12C7601F80180891D
:1012F0009189DC01ED91FC910284F385E02D298335
:101300003A834B835C83099529813A814B815C81C7
:101310008F3F71F0C216D306E406F5064CF4D501F2
:101320008D935D01BFEFCB1ADB0AEB0AFB0ADECF20
:10133000C701B6010F900F900F900F90DF91CF91E2
:101340001F910F91FF90EF90DF90CF90BF90AF90E3
:101350000895CF93DF93EC0188899989DC01ED91A1
:10136000FC910084F185E02D0995892BA9F38889EA
:101370009989DC01ED91FC910484F585E02DDF91E4
:10138000CF910994CF93DF93EC0188899989DC018F
:10139000ED91FC910084F185E02D0995892BA9F34D
:1013A00088899989DC01ED91FC910284F385E02D17
:1013B000DF91CF910994CB0108950C94EA180C9415
:1013C000EA18DC01ED91FC910190F081E02D099487
:1013D0000F931F93CF93DF938C01EB016F3F8FEF40
:1013E000780719F480E090E00DC06A3029F46DE0D0
:1013F000F80180899189E5DF6C2FF8018089918956
:10140000E0DFCE01DF91CF911F910F9108958F9270
:101410009F92BF92CF92DF92EF92FF920F931F9312
:10142000CF93DF9300D000D0CDB7DEB78C014B0156
:10143000C12CD12C7601C216D306E406F50634F58C
:10144000F401B1904F01FAE0BF120DC06DE0F80158
:101450008089918929833A834B835C83B2DF5C81E5
:101460004B813A8129816B2DF801808991892983EB
:101470003A834B835C83A5DFFFEFCF1ADF0AEF0AC5
:10148000FF0A5C814B813A812981D5CFCA01B9011C
:101490000F900F900F900F90DF91CF911F910F91B0
:1014A000FF90EF90DF90CF90BF909F908F90089526
:1014B000FC017183608360E379E08BE099E00C9438
:1014C000731DFC0181E290E0948383831582168270
:1014D000178286E090E0A0E0B0E080879187A28745
:1014E000B38714861586168617868FE791E0918359
:1014F000808380E2808B128A118A748B638B158AB9
:1015000008956115710521F4DA012D913C9102C015
:101510002DE831E0FC01318320836115710529F448
:10152000F90136972081318102C022E030E0FC01D0
:10153000E20FF31F6115710531F4DA0112964D9136
:101540005C91139702C047E951E05183408360FDED
:101550000C94EA18089540E050E062E070E0D1CFCA
:10156000DC01ED91FC91369720813181820F931F30
:10157000F2CFCF93DF93EC01EEDFCE01DF91CF917D
:101580000C94EA18DC01ED91FC91369720813181B1
:10159000820F931FEECFAB0160E070E0B2CF611518
:1015A000710521F4DA012D913C9102C025EF31E063
:1015B000FC01318320836115710529F4F901369707
:1015C0002081318102C026E030E0FC01E20FF31FF0
:1015D0006115710531F4DA0112964D915C91139702
:1015E00002C04FEF51E05183408360FD0C94EA1834
:1015F000089540E050E062E070E0D1CFDC01ED9171
:10160000FC91369720813181820F931FF2CFCF93C7
:10161000DF93EC01EEDFCE01DF91CF910C94EA185D
:10162000DC01ED91FC91369720813181820F931F6F
:10163000EECFAB0160E070E0B2CF0F931F93CF937A
:10164000DF938C01EB01209721F4DA012D913C917D
:1016500002C025E232E0F80131832083209729F48B
:10166000F90136978081918102C088E190E0F8010C
:10167000E80FF91F209731F4DA0116962D913C916D
:10168000179702C02FE232E031832083209721F4A4
:10169000BA016E5F7F4F02C069E172E0C801C9DF25
:1016A000C0FF07C0C801DF91CF911F910F910C942B
:1016B000EA18DF91CF911F910F91089540E050E01B
:1016C00062E070E0BACFDC01ED91FC9136972081A9
:1016D0003181820F931FF2CFCF93DF93EC01EEDFC6
:1016E000CE01DF91CF910C94EA18DC01ED91FC91D1
:1016F000369720813181820F931FEECFAB0160E0DE
:1017000070E09BCF0F931F93CF93DF938C01EB017E
:10171000209721F4DA012D913C9102C02DED31E0AA
:10172000F80131832083209729F4F90136978081CD
:10173000918102C084E190E0F801E80FF91F209741
:1017400031F4DA0116962D913C91179702C027EEDD
:1017500031E031832083209721F4BA016E5F7F4FFF
:1017600002C061ED71E0C80116DFC0FF07C0C8010B
:10177000DF91CF911F910F910C94EA18DF91CF91D7
:101780001F910F91089540E050E062E070E0BACF01
:10179000DC01ED91FC91369720813181820F931FFE
:1017A000F2CFCF93DF93EC01EEDFCE01DF91CF914B
:1017B0000C94EA18DC01ED91FC913697208131817F
:1017C000820F931FEECFAB0160E070E09BCFEF92F2
:1017D000FF920F931F93CF93DF9366E872E088E93F
:1017E00092E06FDEE4E8F2E081E2E82EF12CF08E88
:1017F000E78A86E892E090A787A3118E11A68DED67
:1018000091E09183808387EE91E0958B848B1682A3
:101810001582108617821286118614861386168604
:101820001586108A17860FE911E013830283C7E03B
:10183000D3E0D38BC28B80E1818B6CE572E08EE6C6
:1018400092E03FDEE6E5F2E0128213821482158216
:10185000F48EE38E8CE592E094A783A7158E15A6EF
:1018600085E292E0918380838FE292E0918F808F76
:10187000128611861486138616861586108A178698
:10188000128A118A148A138A17830683D78BC68B10
:1018900088E0858BBE0184E592E0DF91CF911F91B6
:1018A0000F91FF90EF9004CE86E592E007DF84E889
:1018B00092E069CF80E090E008950895FC01858171
:1018C00090E0FC013FD522E0322F3150F1F7FC01CE
:1018D00033D52150F1F7FC0135D588EC8150F1F773
:1018E0000895DC01169620E030E070E0ED91F0E024
:1018F000AB01022E02C0559547950A94E2F741705C
:10190000042E17D52F5F3F4F2430310579F7D6CFFE
:10191000DC01169620E030E070E0ED91F0E0AB01E4
:10192000022E02C0559547950A94E2F74170042EA5
:1019300000D52F5F3F4F2830310579F7BFCF1F9378
:10194000CF93DF93DC011396EC911397F0E0042E14
:10195000F0D41496EC91EF3F11F0F0E0F3D4FC01D9
:10196000268524FF04C0DF91CF911F91D1CF162F80
:10197000EC0170E084E0759567958A95E1F7CF01F9
:10198000B0DF612FCE01DF91CF911F91AACF40E050
:10199000D6CF61E0FCDF80EA9FE00197F1F7089580
:1019A000FC01443008F043E08289481710F04FEF03
:1019B000480FDF01A40FB11D53969C91690F606819
:1019C000CF01E5CFFC016785262F246027876C6057
:1019D000DECFEF92FF920F931F93CF93DF93EC0133
:1019E000423018F08E8588608E874A8B1B8A80E48F
:1019F0008C8B6D8B70E0605C7F4F6E8B222329F0A7
:101A0000413019F48E8584608E878B8158D48C8107
:101A10008F3F09F054D48D8152D47E0186E0E80EC8
:101A2000F11C00E010E06E85262F207164FD0CC0D3
:101A30000430110564F4F701808141D40F5F1F4F1A
:101A4000FFEFEF1AFF0AEFCF08301105A1F780EA88
:101A500096E80197F1F7EB81F0E074D4ED81F0E0C6
:101A600071D4EC81EF3F11F0F0E06CD4211119C07A
:101A700063E0CE0136DF08E213E2C8010197F1F717
:101A800063E0CE012EDFC8010197F1F763E0CE01DC
:101A900028DF8CE291E00197F1F762E0CE0121DFCF
:101AA00013C06062CE0173DF88E293E20197F1F721
:101AB0006E856062CE016BDF8CE291E00197F1F7F9
:101AC0006E856062CE0163DF6E856062CE015FDF8E
:101AD00084E08F87CE0176DFCE015BDF82E0888BEA
:101AE00066E0CE01DF91CF911F910F91FF90EF90B3
:101AF0004ECFCF92EF920F93FC01128287E392E0D8
:101B00009183808363838FEF848345832683078358
:101B1000E086C1861286138614861586168620E016
:101B200041E060E1CF010F91EF90CF9052CF41E0C3
:101B300006DF81E090E00895CF93DF93EB01DC01B5
:101B4000A155BD4F2C9127FF03C01982188223C0D5
:101B50006CE0689F9001699F300D11246C91F90130
:101B6000E60FF11D67FDFA956091AE0270E0E61791
:101B7000F7078CF46C91F901E60FF11D67FDFA95FA
:101B8000BF01EE0FFF1F6E0F7F1FFB01EF54FD4FD4
:101B9000608166FD1AC02C912F5F2C936CE0689FCA
:101BA0009001699F300D11248C91B901680F711D4E
:101BB00087FD7A958091AE0290E0681779070CF066
:101BC00051C08C918C309CF04DC06C91260F311D12
:101BD00067FD3A95F901EE0FFF1F2E0F3F1FF90128
:101BE000EF54FD4FE081EF73F0E0ACD3D4CF6881C8
:101BF00079818C91F901E80FF11D87FDFA95CF01EC
:101C0000EE0FFF1F8E0F9F1FFC01EF54FD4F8181D0
:101C10009281860F971FFA01918380838C91A9018D
:101C2000480F511D87FD5A95CA01FA01EE0FFF1F9B
:101C30008E0F9F1FFC01EF54FD4F808186FF23C054
:101C40008C91280F311D87FD3A95F901EE0FFF1F8A
:101C50002E0F3F1FF901EF54FD4FE081EF73F0E0CD
:101C60006BD311C088819981049680329E4418F408
:101C700080E29EE403C0888199810496FA019183F1
:101C800080838FEF8C93DF91CF9108951F920F92F5
:101C90000FB60F9211240BB60F922F933F934F93D1
:101CA0005F936F937F938F939F93AF93BF93EF93C4
:101CB000FF9348E850E064E870E081E090E03CDFAA
:101CC000FF91EF91BF91AF919F918F917F916F9114
:101CD0005F914F913F912F910F900BBE0F900FBED0
:101CE0000F901F9018951F920F920FB60F9211240C
:101CF0000BB60F922F933F934F935F936F937F9306
:101D00008F939F93AF93BF93EF93FF9348E950E076
:101D100064E970E080E090E00FDFFF91EF91BF9108
:101D2000AF919F918F917F916F915F914F913F9173
:101D30002F910F900BBE0F900FBE0F901F90189514
:101D4000FC019091AE029831A0F481E0890F80935C
:101D5000AE029283892F90E0FC01EE0FFF1F8E0FE1
:101D60009F1FFC01EF54FD4F8CED95E09283818322
:101D700008958FEF82830895CF92DF92EF92FF92C2
:101D80000F931F93CF93DF931F92CDB7DEB76C01F4
:101D90007A018901DC0112968C91883108F06DC0BE
:101DA000862F69838CD2F6018281E82FF0E09F01B3
:101DB000220F331FE20FF31FEF54FD4F69816F7342
:101DC0009081907C692B608360E272E0AB014E19D8
:101DD0005F0957FF02C04D5F5F4F55954795559579
:101DE0004795D6014C9340E659E09A01201B310BF0
:101DF00037FF02C02D5F3F4F3595279535952795C5
:101E0000F60121836CE00E94071DFCE08F9FB0016A
:101E1000112440E050E09A01260F371FF901EE0F20
:101E2000FF1F2E0F3F1FF901EF54FD4F908196FDCC
:101E300016C04F5F5F4F4C30510569F7813049F54F
:101E40001092800082E080938100109285001092B1
:101E50008400B19A80916F00826080936F00D601F8
:101E60001296EC91F0E0CF01880F991FE80FF91F4F
:101E7000EF54FD4F808180648083F60182810F9052
:101E8000DF91CF911F910F91FF90EF90DF90CF9056
:101E900008958111E4CF1092900082E08093910028
:101EA000109295001092940088BB80937100D7CF58
:101EB00020E639E040E252E05FCFFC0192819831A8
:101EC00070F5808128E830E0281B310987FD3395C3
:101ED000220F331F220F331F621773077CF081819B
:101EE00028E532E0281B310987FD3395220F331F87
:101EF000220F331F621773070CF49B014FB7F8943E
:101F0000892F90E0FC01EE0FFF1F8E0F9F1FFC0139
:101F1000EF54FD4F22503109328321834FBF089582
:101F2000AF92BF92CF92DF92EF92FF920F931F93E7
:101F3000CF93DF93EC01603282E078070CF03FC072
:101F400077FD06C0653B71052CF064EB70E002C0C4
:101F500060E070E0888128E830E05901A81AB108F3
:101F600087FDB394AA0CBB1CAA0CBB1C0B2C000C49
:101F7000CC08DD08072E000C880B990B298108E599
:101F800012E0021B110927FD1395000F111F000F0E
:101F9000111F012E000C220B330B3F932F931F9325
:101FA0000F9314EBE12EF12C00E010E020E030E084
:101FB000A9010E94A3180F900F900F900F90CE01CF
:101FC000DF91CF911F910F91FF90EF90DF90CF9015
:101FD000BF90AF9072CFCF93DF938230910510F412
:101FE00082E090E0E0911103F091120320E030E0F4
:101FF000C0E0D0E0309711F1408151814817590776
:10200000C0F04817590761F482819381209719F035
:102010009B838A832BC0909312038093110326C065
:102020002115310519F04217530718F49A01BE0122
:10203000DF01EF010280F381E02DDCCF21153105B6
:1020400009F1281B390B2430310590F412968D913B
:102050009C9113976115710521F0FB019383828395
:1020600004C09093120380931103FD01329644C083
:10207000FD01E20FF31F81939193225031092D93BB
:102080003C933AC02091F9023091FA02232B41F49B
:1020900020910401309105013093FA022093F90256
:1020A00020910201309103012115310541F42DB732
:1020B0003EB74091060150910701241B350BE0917A
:1020C000F902F091FA02E217F307A0F42E1B3F0B7E
:1020D0002817390778F0AC014E5F5F4F241735079A
:1020E00048F04E0F5F1F5093FA024093F90281931C
:1020F000919302C0E0E0F0E0CF01DF91CF9108952D
:102100000F931F93CF93DF93009709F48CC0FC01CA
:10211000329713821282009111031091120301155C
:10212000110581F420813181820F931F2091F902E2
:102130003091FA022817390779F5F093FA02E09303
:10214000F90271C0D80140E050E0AE17BF0750F46B
:1021500012962D913C911397AD012115310509F18E
:10216000D901F3CF9D01DA0133832283608171812C
:10217000860F971F8217930769F4EC012881398134
:10218000260F371F2E5F3F4F318320838A819B812B
:1021900093838283452B29F4F0931203E093110378
:1021A00042C01396FC93EE931297ED014991599119
:1021B0009E01240F351FE217F30771F4808191818E
:1021C000840F951F029611969C938E938281938122
:1021D00013969C938E931297E0E0F0E0D80112964C
:1021E0008D919C911397009719F0F8018C01F6CF0F
:1021F0008D919C9198012E5F3F4F820F931F2091EC
:10220000F9023091FA022817390769F4309729F456
:10221000109212031092110302C0138212821093C3
:10222000FA020093F902DF91CF911F910F91089567
:102230001DBA109268001CBC10BE1FBA10927A0022
:1022400010926E0010926F00109270001092710048
:102250001092C9001092BC0011B814B817B81AB87F
:102260001DB810BA12B815B818B81BB81EB811BAF4
:102270000895F894E1E6F0E020E8208381E080838F
:1022800093E094BD95BDEEE6F0E09081916090837F
:102290008093800092E0909381008093B0009093AF
:1022A000B100809390009093910085E880937A002C
:1022B00020937B0010927E00AAD2789408958E32EB
:1022C00070F4E8E9F0E0880FE80FF11D9591E491D2
:1022D000F0E08FB7F8942181922B91838FBF0895FE
:1022E0008E3230F5AAEDA80FA83048F4E4EFF0E004
:1022F000AA0FEA0FF11DA591B0E0959103C09FEFE1
:10230000A0E0B0E0E8E9F0E0880FE80FF11D2591CA
:10231000E491F0E03FB7F8948181422F4095842307
:1023200081838281282B2283EC91E923EC933FBFA8
:102330000895002039F000C0EE3250F4EE0FE7555A
:10234000FE4E0994EE3220F4EE0FEB5FFD4E099441
:102350000895589AB6C0599AD0C05A9A08955B9A6F
:1023600008955C9A08955D9A08955E9A08955F9A1B
:102370000895709A0895719A0895409A0895419A1F
:102380000895429A0895439A0895449AC8C0459A78
:10239000C0C0469AB8C0479A0895769A0895779A29
:1023A0000895289A0895299A08952A9A08952B9AAB
:1023B00008952C9A9CC02D9A88C02E9A8CC02F9A72
:1023C00090C0109A0895119A0895129A0895139A38
:1023D0000895149A0895159A0895169A0895179ACB
:1023E0000895749A0895759A0895889A0895899A17
:1023F00008958A9A08958B9A08958C9A08958D9AD3
:1024000008958E9A08958F9A089558985AC05998A9
:1024100074C05A9808955B9808955C9808955D98E3
:1024200008955E9808955F9808957098089571983A
:1024300008954098089541980895429808954398C2
:10244000089544986CC0459864C046985CC047980D
:10245000089576980895779808952898089529986A
:1024600008952A9808952B9808952C9840C02D9887
:102470002CC02E9830C02F9834C010980895119811
:10248000089512980895139808951498089515982A
:102490000895169808951798089574980895759852
:1024A000089588980895899808958A9808958B9832
:1024B00008958C9808958D9808958E9808958F9812
:1024C0000895E4B5EF7DE4BD0895E0918000EF77D5
:1024D000E09380000895E0918000EF7DE09380001C
:1024E0000895E0918000E77FE09380000895E091F7
:1024F000B000EF77E093B0000895E091B000EF7D79
:10250000E093B0000895E0919000EF77E0939000A1
:102510000895E0919000EF7DE09390000895E091A0
:102520009000E77FE09390000895EE3258F4EE0FAC
:10253000EE0FFF27EC3718F4EA55FD4E0994E855E5
:10254000FD4E0994EE270895E1E00895E9B1E170A8
:10255000D9F70895E9B1E270B9F70895E9B1E470E7
:1025600099F70895E9B1E87079F70895E9B1E07154
:1025700059F70895E9B1E07239F70895E9B1E074C7
:1025800019F70895E9B1E078F9F60895ECB1E17032
:10259000D9F60895ECB1E270B9F60895E6B1E170AC
:1025A00099F60895E6B1E27079F60895E6B1E4701F
:1025B00059F60895E6B1E87039F60895E6B1E0718C
:1025C00019F60895E6B1E072E9F50895E6B1E07410
:1025D000C9F50895E6B1E078A9F50895ECB1E07485
:1025E00089F50895ECB1E07869F50895E3B1E170FB
:1025F00049F50895E3B1E27029F50895E3B1E47077
:1026000009F50895E3B1E870E9F40895E3B1E071E4
:10261000C9F40895E3B1E072A9F40895E3B1E07458
:1026200089F40895E3B1E07869F40895E0B1E170C8
:1026300049F40895E0B1E27029F40895E0B1E4703E
:1026400009F40895E1E00895E0B1E870D9F708953C
:10265000E0B1E071B9F70895E0B1E07299F708953B
:10266000E0B1E07479F70895E0B1E07859F70895A2
:10267000ECB1E07139F70895ECB1E07219F7089503
:10268000EFB1E170F9F60895EFB1E270D9F608956F
:10269000EFB1E470B9F60895EFB1E87099F60895D6
:1026A000EFB1E07179F60895EFB1E07259F608954F
:1026B000EFB1E07439F60895EFB1E07819F60895B6
:1026C000F89484B7877F84BF809160008061809395
:1026D00060001092600080E197E20197F1F781E0DD
:1026E0008093E00080E28093D80080E395E7019733
:1026F000F1F79EDD0C9400FEFFCFF89499DD80E3A6
:1027000095E70197F1F70C940000FFCF8F938FB7F7
:102710008F938091FB028A5F8D37D0F48093FB0208
:102720008091FC028E5F8093FC02D8F08091FD02C4
:102730008F4F8093FD02A8F08091FE028F4F80930F
:10274000FE0278F08091FF028F4F8093FF0209C054
:102750008D578093FB028091FC028D5F8093FC0279
:1027600028F780910003885F8093000358F08091E0
:1027700001038F4F8093010328F0809102038F4F54
:10278000809302038F918FBF8F911895CF92DF9224
:10279000EF92FF926B017C0119D09B01C114D1040F
:1027A000E104F10471F012D0621B730B683E7340B8
:1027B000A8F381E0C81AD108E108F10828513C4F7C
:1027C000EDCFFF90EF90DF90CF9008950FB6F89483
:1027D00066B515B2709100038091010390910203D8
:1027E0000FBE10FE05C06F3F19F0785F8F4F9F4FEF
:1027F00011240024660F001C660F001C660F001CCD
:10280000702908958091E80080FFFCCF08958091A1
:10281000D80087FF02C085FF1BC081E88093D700E6
:1028200080EA8093D80086E189BD09B400FEFDCF1F
:1028300080E98093D8001092E00010921B03109260
:102840001A03109219031092E1008DE08093E200C8
:1028500008951F920F920FB60F9211240BB60F928C
:102860002F933F934F935F936F937F938F939F9398
:10287000AF93BF93EF93FF939091E1001092E1002B
:1028800093FF11C01092E90081E08093EB00109259
:10289000EC0082E28093ED0088E08093F0001092DB
:1028A0001B031092190392FF1DC080911B03882304
:1028B000C9F080910603882359F081508093060364
:1028C000811106C084E08093E9008AE38093E800E8
:1028D00080910503882331F0815080930503811195
:1028E00001C0EEDE90FF0CC080E18093E200109208
:1028F0001B0381E080931A0380EA8093D80019BCFF
:1029000080911A03882379F094FF0DC086E189BD78
:1029100009B400FEFDCF80E98093D8008DE080935C
:10292000E20010921A03FF91EF91BF91AF919F9136
:102930008F917F916F915F914F913F912F910F9068
:102940000BBE0F900FBE0F901F9018951F920F9205
:102950000FB60F9211240BB60F92EF92FF920F93C6
:102960001F932F933F934F935F936F937F938F9317
:102970009F93AF93BF93CF93EF93FF931092E90090
:102980008091E80083FF30C1C091F1008091F10097
:10299000E090F100F090F1000091F1001091F10051
:1029A0002091F1003091F10092EF9093E800863091
:1029B00009F03FC086E0E4E0F1E0459155914E1505
:1029C0005F0511F0359615C0459155914017510797
:1029D00011F033960EC04591559184912F3F3105EA
:1029E00019F010F02FEF30E0281708F4822F3EEF97
:1029F00008C0815011F7F8C0891B3093E800882384
:102A0000A9F09091E800292F2570D9F392FDEFC02D
:102A1000982F813208F090E2292F222369F3FA01DE
:102A200045914093F100AF012150F7CF903249F327
:102A3000DEC0853049F48EEF8093E800E3DE8E2D12
:102A400080688093E300D3C0893001F5C111CCC008
:102A5000E0921B0310921903109206038EEF8093ED
:102A6000E80081E0E7ECF1E08093E9009591909334
:102A7000EB00992331F095919093EC009591909310
:102A8000ED008F5F853081F78EE1A9C0883049F471
:102A9000C03809F0A9C0B6DE80911B038093F10015
:102AA0007DC0813279F4C13A09F09EC0ABDEE8E026
:102AB000F1E087E08E0F90819093F10031968E13B4
:102AC000FACF6CC0803209F047C0C13209F08CC027
:102AD0008091E80082FFFCCFE8E0F1E087E08E0F14
:102AE0009091F100908331968E13FACF8BEF809303
:102AF000E8008EEF8093E8003091080140910901D1
:102B000080910A0120910B0190E0A0E0B0E0DC018F
:102B100099278827942B832BB22B86389105A10502
:102B2000B10521F48FE08093050361C086399105DA
:102B3000A105B10509F05BC084E08093E9009FEF37
:102B40008091EE00837039F09093E8008091E80066
:102B500082FDFCCFF5CFD1DD823231F4C13209F0F4
:102B600043C0E092190304C0833221F4C132E1F57D
:102B700049DE14C0811116C045DEC23851F40093FD
:102B8000E9008091EB0085FB882780F91092E9002D
:102B900001C080E08093F1001092F1008EEF8093ED
:102BA000E80025C0982F9D7F9130F1F4C230E1F408
:102BB000EF28D1F40F779FEF900F9630A8F49EEF97
:102BC0009093E8000093E900833071F089E18093ED
:102BD000EB0081E090E001C0880F0A95EAF780934E
:102BE000EA001092EA0003C081E28093EB00FF91BB
:102BF000EF91CF91BF91AF919F918F917F916F9105
:102C00005F914F913F912F911F910F91FF90EF9006
:102C10000F900BBE0F900FBE0F901F9018958F92C4
:102C20009F92AF92BF92CF92DF92EF92FF920F935B
:102C30001F93CF93DF9390E0880F991FFC01E85614
:102C4000FF4F1491FC01E756FF4F8491C82FD0E04D
:102C5000662311F0012F01C000E0CA01B90133E081
:102C6000660F771F881F991F3A95D1F725E130E04D
:102C700040E050E0D8D669017A01BA01A9014F5F5E
:102C80005F4F6F4F7F4F80E090E0DC012881212370
:102C9000201316C00196A11DB11D84179507A60724
:102CA000B707A1F73DC0AC01BD014F5F5F4F6F4F4C
:102CB0007F4F8C159D05AE05BF0591F1DB01CA0163
:102CC000288121232013EFCF20E030E0A9010197D4
:102CD000A109B10968816123601310C02F5F3F4FC4
:102CE0004F4F5F4F4C015D01820E931EA41EB51E17
:102CF0008C149D04AE04BF0469F712C0A5E1B0E0D6
:102D0000D9D6DC01CB010F96A11DB11DBC01CD01AF
:102D100023E096958795779567952A95D1F703C017
:102D200060E070E0CB01DF91CF911F910F91FF9098
:102D3000EF90DF90CF90BF90AF909F908F900895CD
:102D4000CF92DF92EF92FF920F931F93CF93DF9377
:102D50006C01EB017B01E40EF51E00E010E0CE15E6
:102D6000DF0561F06991D601ED91FC910190F08150
:102D7000E02DC6010995080F191FF1CFC801DF9199
:102D8000CF911F910F91FF90EF90DF90CF9008951A
:102D9000CF93DF93CDB7DEB72B970FB6F894DEBF96
:102DA0000FBECDBFDE011C96E3E34E9F44270E0EFF
:102DB000411D302D5E9F5527400D511D6E9F66278A
:102DC000500D611D7E9F7727600D711D1124340FFA
:102DD000451F561F671F711D350F461F571F611D69
:102DE000711D370F411D511D611D711D7695679530
:102DF000579547953795EAE03E9F312D1124305D78
:102E00003E93411551056105710509F0CDCF22238F
:102E100021F01197FD012DE22083FC0120813181F9
:102E2000AE014A1B5B0B445F5F4FF9012281338186
:102E3000BD01F90109952B960FB6F894DEBF0FBEC0
:102E4000CDBFDF91CF9108954F925F926F927F92A5
:102E50008F929F92AF92BF92CF92DF92EF92FF92AA
:102E60000F931F93CF93DF93CDB7DEB728970FB69D
:102E7000F894DEBF0FBECDBF7C012A013B01D22EEC
:102E800020E030E0A901C301B201FCD387FF06C0F6
:102E900077FA709477F8709401E001C000E010E0D8
:102EA00060E070E080E09FE31D1539F02DEC3CEC14
:102EB0004CEC5DE33AD51F5FF7CF9B01AC01C3013A
:102EC000B2017CD32B013C014ED44B015C01202F7D
:102ED000AB01BC01C7015CDF6C01112309F439C0EF
:102EE000C501B4016CD49B01AC01C301B20165D32F
:102EF0002EE22983183008F017E05E0122E0A20ECE
:102F0000B11C012F0150B8F020E030E040E251E464
:102F10000CD52B013C0127D480E3860FD5018D937E
:102F20005D0170E080E090E04CD49B01AC01C301F6
:102F3000B20143D3E7CFD701ED91FC9141E0410FBE
:102F400050E00280F381E02DBE016F5F7F4FC7012B
:102F50000995C60128960FB6F894DEBF0FBECDBF07
:102F6000DF91CF911F910F91FF90EF90DF90CF9065
:102F7000BF90AF909F908F907F906F905F904F9099
:102F80000895CF92DF92EF92FF92CF93DF93EC01FF
:102F90000FB6F894C090FC02D090FD02E090FE02C3
:102FA000F090FF020FBEE881F9810484F585E02DE1
:102FB000CE01099597FF1AC00FB6F8944091FC0214
:102FC0005091FD026091FE027091FF020FBE4C19FC
:102FD0005D096E097F098B819C81AD81BE81481797
:102FE00059076A077B07F8F28FEF9FEFDF91CF91C8
:102FF000FF90EF90DF90CF900895CF93DF93EC0197
:10300000CE01BFDF97FD11C08D32910571F09C019B
:10301000205331092A30310540F0E881F9810284DA
:10302000F385E02DCE010995EBCFDF91CF91089587
:103030004F925F926F927F92BF92CF92DF92EF9208
:10304000FF920F931F93CF93DF93EC01B62ED5DF42
:10305000E82F87FD65C0C12CD12C80E8E82E8FE3D6
:10306000F82E412C512C320110E000E0EB1571F1EB
:10307000ED3249F1EE3249F180ED8E0F8A3030F5B4
:10308000AAE0B0E0A301920115D54E2EEE0F55082F
:1030900066087708AB01BC01440D551D661D771D00
:1030A0002A013B0180E3481A510861087108112385
:1030B00069F02DEC3CEC4CEC5DE3C701B60135D476
:1030C0006B017C0102C001E001C011E0E881F981DF
:1030D0000284F385E02DCE010995CE0152DFE82F61
:1030E00080ED8E0F8A3008F4C1CFEE3209F4BECFE6
:1030F000EB1102C0EB2DBACFC301B201002339F0AE
:1031000090958095709561957F4F8F4F9F4F1123BC
:1031100029F057D3A701960108D405C052D303C0A4
:1031200060E070E0CB01DF91CF911F910F91FF9094
:10313000EF90DF90CF90BF907F906F905F904F9017
:10314000089561E075CF4F925F926F927F92AF9238
:10315000BF92CF92DF92EF92FF920F931F93CF9384
:10316000DF93CDB7DEB729013A019B01AC012419E9
:1031700035094609570989899A89AB89BC89BC01F7
:10318000CD016A197B098C099D0932D4A8019701E8
:10319000241935094609570968D4CA01B9016A0DCD
:1031A0007B1D8C1D9D1DDF91CF911F910F91FF9075
:1031B000EF90DF90CF90BF90AF907F906F905F9037
:1031C0004F90089556D80E943E080E943F08FDCFB8
:1031D0000C94EB0F0C948010FC018FB7F894909135
:1031E0001B03911102C090E010C093E09093E9009E
:1031F0009091F200911109C02091E80022FFF3CFD5
:1032000025FDF1CF2BE62093E8008FBF2085318587
:1032100037FD03C09F3F09F09F5F892F90E008951D
:10322000CF93DF93EC018885998597FF09C0E881EA
:10323000F9810284F385E02DCE010995998788876D
:1032400088859985DF91CF910895FC01208531858E
:1032500037FD07C04FEF5FEF51874087C9019927BE
:1032600008959FB7F89480911B03882369F083E049
:103270008093E9002BE68091E80085FD09C082FF7C
:1032800003C02093E800F7CF9FBF8FEF9FEF089513
:103290008091F1002091E80025FD03C02BE62093EA
:1032A000E8009FBF90E0089580911B03882361F0A0
:1032B0008FB7F89494E09093E9009091F2008FBF5B
:1032C00080E4891B90E0089580E090E00895DF920B
:1032D000EF92FF920F931F93CF93DF938C01EB013B
:1032E00080911B03882371F07FB7F89484E080936A
:1032F000E90080910403882369F08091E80085FD4E
:1033000007C07FBF81E0F801828320E030E0D1C0B8
:103310001092040320E030E064E080E4F82EA1EF96
:10332000B0E09AE3E92EE3E0DE2E4115510509F401
:10333000BFC08091E400815F9091E80095FD16C0C8
:103340007FBF9091E400981304C081E08093040350
:1033500005C090911B03911104C081E0F8018283A4
:10336000A8C07FB7F8946093E900E6CF8091F2009F
:103370009F2D981BE92FF0E04E175F0708F4942F5C
:10338000E92FF0E04E1B5F0B2E0F3F1FE0E4E91B1F
:10339000E03428F4EE0FFF27E053F64E099480C086
:1033A00099919C9399919C9399919C9399919C93B9
:1033B00099919C9399919C9399919C9399919C93A9
:1033C00099919C9399919C9399919C9399919C9399
:1033D00099919C9399919C9399919C9399919C9389
:1033E00099919C9399919C9399919C9399919C9379
:1033F00099919C9399919C9399919C9399919C9369
:1034000099919C9399919C9399919C9399919C9358
:1034100099919C9399919C9399919C9399919C9348
:1034200099919C9399919C9399919C9399919C9338
:1034300099919C9399919C9399919C9399919C9328
:1034400099919C9399919C9399919C9399919C9318
:1034500099919C9399919C9399919C9399919C9308
:1034600099919C9399919C9399919C9399919C93F8
:1034700099919C9399919C9399919C9399919C93E8
:1034800099919C9399919C9399919C9399919C93D8
:1034900099919C9399919C9399919C9399919C93C8
:1034A0008091E80085FFE092E800D09206033DCFCE
:1034B0007FBFC901DF91CF911F910F91FF90EF90D6
:1034C000DF9008952FEF3FEFFC01318720879FD9D0
:1034D0000FB6F8948091FC029091FD02A091FE023B
:1034E000B091FF020FBE9C0180911B03882329F03D
:1034F00068EC70E080E090E049C980911A0388236D
:1035000001F10FB6F8948091FC029091FD02A09118
:10351000FE02B091FF020FBE40911A03442389F0CE
:103520000FB6F8944091FC025091FD026091FE02AA
:103530007091FF020FBE481B590B4B3F510560F3C2
:1035400011C00FB6F8948091FC029091FD02A091F9
:10355000FE02B091FF020FBE821B930B853C994087
:1035600008F4C2CF08959FB7F89480911B03882375
:1035700021F080910603811102C09FBF089584E06D
:103580008093E9008AE38093E80010920603F5CF68
:10359000EACFE7E0F3E08AE0DF011D928A95E9F7E0
:1035A00088EE93E0A0E0B0E083839483A583B683A4
:1035B00083E492E09183808308955058BB27AA2723
:1035C0000ED075C166D130F06BD120F031F49F3F41
:1035D00011F41EF45BC10EF4E095E7FB51C1E92F35
:1035E00077D180F3BA17620773078407950718F03D
:1035F00071F49EF58FC10EF4E0950B2EBA2FA02D1D
:103600000B01B90190010C01CA01A0011124FF278F
:10361000591B99F0593F50F4503E68F11A16F0408A
:10362000A22F232F342F4427585FF3CF4695379589
:103630002795A795F0405395C9F77EF41F16BA0B4E
:10364000620B730B840BBAF09150A1F0FF0FBB1FFC
:10365000661F771F881FC2F70EC0BA0F621F731F45
:10366000841F48F4879577956795B795F7959E3FA2
:1036700008F0B3CF9395880F08F09927EE0F979530
:1036800087950895D9D008F481E008950CD00FC132
:1036900007D140F0FED030F021F45F3F19F0F0C0C8
:1036A000511139C1F3C014D198F39923C9F35523AB
:1036B000B1F3951B550BBB27AA2762177307840725
:1036C00038F09F5F5F4F220F331F441FAA1FA9F3DB
:1036D00033D00E2E3AF0E0E830D091505040E695CD
:1036E000001CCAF729D0FE2F27D0660F771F881F2E
:1036F000BB1F261737074807AB07B0E809F0BB0B1D
:10370000802DBF01FF2793585F4F2AF09E3F510540
:1037100068F0B6C000C15F3FECF3983EDCF38695DD
:1037200077956795B795F7959F5FC9F7880F911DB6
:103730009695879597F90895E1E0660F771F881FA2
:10374000BB1F621773078407BA0720F0621B730B55
:10375000840BBA0BEE1F88F7E095089504D06894A7
:10376000B111D9C00895BCD088F09F5790F0B92FFF
:103770009927B751A0F0D1F0660F771F881F991FC6
:103780001AF0BA95C9F712C0B13081F0C3D0B1E0D8
:103790000895C0C0672F782F8827B85F39F0B93FE8
:1037A000CCF3869577956795B395D9F73EF49095C8
:1037B0008095709561957F4F8F4F9F4F0895E89446
:1037C00009C097FB3EF490958095709561957F4F69
:1037D0008F4F9F4F9923A9F0F92F96E9BB27939517
:1037E000F695879577956795B795F111F8CFFAF427
:1037F000BB0F11F460FF1BC06F5F7F4F8F4F9F4F58
:1038000016C0882311F096E911C0772321F09EE8B5
:10381000872F762F05C0662371F096E8862F70E01B
:1038200060E02AF09A95660F771F881FDAF7880FF5
:103830009695879597F90895990F0008550FAA0B4B
:10384000E0E8FEEF16161706E807F907C0F01216B3
:103850001306E407F50798F0621B730B840B950BB6
:1038600039F40A2661F0232B242B252B21F408950B
:103870000A2609F4A140A6958FEF811D811D0895A8
:1038800097F99F6780E870E060E008959FEF80EC13
:10389000089500240A9416161706180609060895B6
:1038A00000240A9412161306140605060895092E1C
:1038B0000394000C11F4882352F0BB0F40F4BF2B8B
:1038C00011F460FF04C06F5F7F4F8F4F9F4F0895CB
:1038D00057FD9058440F551F59F05F3F71F04795C1
:1038E000880F97FB991F61F09F3F79F087950895A6
:1038F000121613061406551FF2CF4695F1DF08C0C5
:10390000161617061806991FF1CF869571056105E1
:1039100008940895E894BB2766277727CB0197F989
:1039200008958ADF08F48FEF08950BD0C0CFB1DF80
:1039300028F0B6DF18F0952309F0A2CFA7CF112405
:10394000EACFC6DFA0F3959FD1F3950F50E0551F46
:10395000629FF001729FBB27F00DB11D639FAA27E4
:10396000F00DB11DAA1F649F6627B00DA11D661F33
:10397000829F2227B00DA11D621F739FB00DA11D54
:10398000621F839FA00D611D221F749F3327A00D0E
:10399000611D231F849F600D211D822F762F6A2FAA
:1039A00011249F5750408AF0E1F088234AF0EE0F2F
:1039B000FF1FBB1F661F771F881F91505040A9F73C
:1039C0009E3F510570F05CCFA6CF5F3FECF3983E71
:1039D000DCF3869577956795B795F795E7959F5FA3
:1039E000C1F7FE2B880F911D9695879597F908953D
:1039F000DB018F939F935ED0BF91AF91A29F800D0B
:103A0000911DA39F900DB29F900D11240895991BB5
:103A100079E004C0991F961708F0961B881F7A95C5
:103A2000C9F780950895A1E21A2EAA1BBB1BFD01C0
:103A30000DC0AA1FBB1FEE1FFF1FA217B307E4078D
:103A4000F50720F0A21BB30BE40BF50B661F771FE5
:103A5000881F991F1A9469F76095709580959095C5
:103A60009B01AC01BD01CF010895052E97FB16F413
:103A700000940FD057FD05D0D6DF07FC02D046F4E6
:103A800008C050954095309521953F4F4F4F5F4F5F
:103A9000089590958095709561957F4F8F4F9F4FBA
:103AA0000895EE0FFF1F0024001C0BBE0790F69137
:103AB000E02D099409D0A59F900DB49F900DA49F6F
:103AC000800D911D11240895A29FB001B39FC001E4
:103AD000A39F700D811D1124911DB29F700D811D3A
:103AE0001124911D08950F931F93CF93DF93009797
:103AF00031F46115710519F480E090E039C08B0153
:103B0000EC016EE070E081E090E037D0FC01892BA1
:103B100099F380E883830115110571F013870287FB
:103B200081E883838091130390911403892B21F4FE
:103B3000F0931403E09313032097C9F0D187C08753
:103B40008381826083838091150390911603892B72
:103B500071F4F0931603E09315038091170390918D
:103B60001803892B21F4F0931803E0931703CF0176
:103B7000DF91CF911F910F9108950F931F93CF93D2
:103B8000DF93869F8001879F100D969F100D112453
:103B9000C8010E94EB0FEC01009721F0A80160E042
:103BA00070E006D0CE01DF91CF911F910F91089563
:103BB000DC0101C06D9341505040E0F7089510E0E2
:103BC000CBEED0E003C0FE016CDF2196CC3ED107E6
:063BD000D1F7F894FFCFCD
:103BD600010000001C03800000E100000000087BDB
:103BE600226E6976656C41677561223A002C2276F1
:103BF6006172696163696F6E4E6976656C223A001F
:103C06002C2270726F706F7263696F6E416265729B
:103C160074757261223A00683A2000473A200063C0
:103C26006D20202020200025202020202020007D1F
:103C3600000000000015030F0641063E014601F193
:103C460002FEFF0000420196011303000000004837
:103C560009DF098D019701020000000000AB0AB9D7
:103C66000AFEFFFEFF0000B00AC20A00000000497B
:103C760009DD094A094B094E0951095409570963D7
:103C860009A909C209DB09070AE8091400000000AE
:103C96000000000000ECFFECFF000000000000DD6B
:103CA60001C101CB01E701140000000000C30BD1E4
:103CB6000BECFFECFF0000C80BDA0BF501FF010669
:103CC6000000000000F90A070BFAFFFAFF0000FEE9
:103CD6000A100B18000000000000000000E8FFE8D2
:103CE600FF0000000000002502090213022F02183F
:103CF60000000000005E0B6C0BE8FFE8FF000063AD
:103D06000B750B00000000970DA0165A0C5D0C00F9
:103D1600000000280167195419C81AEC1825191053
:023D2600190082
:00000001FF
