:100000000C9462000C94DF070C94B8070C9455070D
:100010000C94F2060C9481060C948A000C948A00CD
:100020000C948A000C948A000C948A000C948A0028
:100030000C948A000C945A060C948A000C948A0042
:100040000C9410060C948A000C94DE050C94B805F0
:100050000C948A000C948A000C948A000C948A00F8
:100060000C948A000C948A00000000080002010031
:100070000003040700000000000000000000000072
:10008000250028002B0000000000240027002A0083
:1000900000000000230026002900040404040404D6
:1000A0000404020202020202030303030303010227
:1000B00004081020408001020408102001020408F6
:1000C0001020A30811241FBECFEFD8E0DEBFCDBFA4
:1000D00011E0A0E0B1E0E6E8F9E102C005900D9280
:1000E000A832B107D9F722E0A8E2B1E001C01D9221
:1000F000A031B207E1F710E0C2E6D0E004C02197DA
:10010000FE010E94890BC136D107C9F70E9406087B
:100110000C94C10C0C9400009C019FB7F894309390
:10012000D8012093D701E898E9E6F0E080818C7F40
:1001300080838081682B6083E09AE89A9FBF08954E
:10014000CF93DF9390E0FC01E255FF4F2491FC0137
:10015000E656FF4F84918823C1F090E0880F991FE5
:10016000FC01EA57FF4FC591D491FC01E458FF4FC1
:10017000A591B4919FB7F8943881822F80958323FD
:100180008883EC91E22BEC939FBFDF91CF91089590
:10019000CF92DF92EF92FF920F931F93CF93DF9353
:1001A0006C017A018B01C0E0D0E0CE15DF0589F04B
:1001B000D8016D918D01D601ED91FC910190F081F6
:1001C000E02DC6010995892B11F47E0102C021960C
:1001D000ECCFC701DF91CF911F910F91FF90EF906E
:1001E000DF90CF900895089580E090E00895FC019D
:1001F000538D448D252F30E0842F90E0821B930B8C
:10020000541710F0CF96089501970895FC01918D31
:10021000828D981761F0828DDF01A80FB11D5D9668
:100220008C91928D9F5F9F73928F90E008958FEFD6
:100230009FEF0895FC01918D828D981731F0828D8A
:10024000E80FF11D858D90E008958FEF9FEF0895E1
:10025000FC01918D228D892F90E0805C9F4F821B45
:1002600091098F73992708958AE391E00E942801EC
:1002700021E0892B09F420E0822F0895FC01848D70
:10028000DF01A80FB11DA35ABF4F2C91848D90E0C0
:1002900001968F739927848FA689B7892C93A0899B
:1002A000B1898C9180648C93938D848D981306C052
:1002B0000288F389E02D80818F7D80830895EF92FD
:1002C000FF920F931F93CF93DF93EC0181E0888F10
:1002D0009B8D8C8D981305C0E889F989808185FDF7
:1002E00024C0F62E0B8D10E00F5F1F4F0F731127E8
:1002F000E02E8C8DE8120CC00FB607FCFACFE8890F
:10030000F989808185FFF5CFCE010E943E01F1CFB2
:100310008B8DFE01E80FF11DE35AFF4FF0820B8F2A
:10032000EA89FB898081806207C0EE89FF8960834A
:10033000E889F98980818064808381E090E0DF91A1
:10034000CF911F910F91FF90EF900895CF93DF937E
:10035000EC01888D8823C9F0EA89FB89808185FDBD
:1003600005C0A889B9898C9186FD0FC00FB607FC1E
:10037000F5CF808185FFF2CFA889B9898C9185FF5F
:10038000EDCFCE010E943E01E7CFDF91CF910895DE
:1003900080E090E0892B29F00E94340181110C94B7
:1003A00000000895833081F028F4813099F0823084
:1003B000A1F008958730A9F08830B9F08430D1F4E5
:1003C000809180008F7D03C0809180008F77809323
:1003D0008000089584B58F7702C084B58F7D84BD79
:1003E00008958091B0008F7703C08091B0008F7D19
:1003F0008093B00008951F93CF93DF93282F30E0B0
:10040000F901E859FF4F8491F901E255FF4FD4916A
:10041000F901E656FF4FC491CC23C9F0162F811184
:100420000E94D201EC2FF0E0EE0FFF1FE458FF4FC7
:10043000A591B4918FB7F894111105C09C91ED2F3F
:10044000E095E92302C0EC91ED2BEC938FBFDF9197
:10045000CF911F9108953FB7F89480913101909109
:100460003201A0913301B091340126B5A89B05C09B
:100470002F3F19F00196A11DB11D3FBFBA2FA92F23
:10048000982F8827820F911DA11DB11DBC01CD01A0
:1004900042E0660F771F881F991F4A95D1F708958C
:1004A000009769F0FC0101900020E9F73197AF0156
:1004B000481B590BBC018AE391E00C94C80080E012
:1004C00090E008958F929F92AF92BF920F931F93E7
:1004D000CF93DF93CDB7DEB7A1970FB6F894DEBF09
:1004E0000FBECDBF19A2423008F44AE08E010F5D65
:1004F0001F4F842E912CA12CB12CA50194010E9498
:10050000670BE62FB901CA0101501109EA3014F452
:10051000E05D01C0E95CD801EC93232B242B252B53
:1005200061F7C8010E945002A1960FB6F894DEBF91
:100530000FBECDBFDF91CF911F910F91BF90AF90B4
:100540009F908F9008950E94BC0CCF93DF93809171
:10055000280190912901892B81F484E090E00E9488
:100560008F0BEC01198218821B821A8282E00E9492
:10057000A000D0932901C093280180912801909177
:100580002901DF91CF910895CF93DF9362E085ED4C
:1005900092E00E948C000E94A502EC010E942B02B6
:1005A0007B836A83DF91CF910895CF93DF9363E0DC
:1005B00084EC92E00E948C000E94A502EC010E9453
:1005C0002B022A813B81621B730B79836883DF9145
:1005D000CF9108954F925F926F927F928F929F92E8
:1005E000AF92BF92CF92DF92EF92FF920F931F9341
:1005F000CF93DF93CDB7DEB728970FB6F894DEBF61
:100600000FBECDBF80912A0190912B01892B09F05B
:100610003EC08AE190E00E948F0BFC0111821082A3
:100620008AE097EDA3EABBE382839383A483B58337
:1006300086839783A087B1872FB7F89480912D0187
:1006400090912E01A0912F01B09130012FBF828790
:100650009387A487B58789E294EDA2E5B5E3868701
:100660009787A08BB18B8FE196E3A0E6B9E3828BED
:10067000938BA48BB58B85E295E7A2E0BFE3868BD5
:10068000978BA08FB18FF0932B01E0932A010091FB
:100690002A0110912B0183E00E94A000EBE6F0E01C
:1006A0008491E1EBF0E0E490EDE9F0E0F490FF20DC
:1006B000A1F081110E94D201EF2DF0E0EE0FFF1F9B
:1006C000E057FF4FA591B491EC91EE2131E020E08D
:1006D00009F430E0832F922F02C080E090E0009771
:1006E00001F5D8012D913C911197232BD1F02FB713
:1006F000F89440912D0150912E0160912F0170913D
:1007000030012FBFF8014287538764877587468180
:1007100057816085718512964D935D936D937C939F
:100720001597F801918380830E94A502DC016D91E9
:100730007C9164527240072E000C880B990B0E942A
:10074000E50920E030E049E654E40E94420920E057
:1007500030E0A9010E94D1086B017C0120E030E06B
:10076000A9010E943D0987FD11C020E030E040E86A
:100770005FE3C701B6010E94950A181654F4C12C14
:10078000D12C20E8E22E2FE3F22E03C0C12CD12C75
:10079000760120E030E048EC52E4C701B6010E9447
:1007A0009A0A6B017C01F801808191818130910569
:1007B00021F52AE037ED43EA5BE3668177818085A6
:1007C00091850E94D1084B015C0128EB3EE145E098
:1007D0005EE30E94950A181644F498EB892E9EE178
:1007E000992E95E0A92E9EE3B92ED80116968D92EA
:1007F0009D92AD92BC921997AFC0892B09F0ACC005
:100800008FB7F89420912D0130912E0140912F0146
:100810005091300129833A834B835C838FBF62817F
:100820007381848195810E940D0B6D837E838F83FC
:100830009887F80186849784A088B1886289738933
:10084000848995899B01AC010E949A0A2B013C0185
:10085000A5019401C501B4010E949A0A9B01AC0153
:10086000C301B2010E94D0089B01AC0163EC75EF9B
:100870008CE991E40E9442090E940D0B2B013C017E
:10088000D80156962D913D914D915C915997C70194
:10089000B6010E949A0AA50194010E949A0AA30136
:1008A00092010E949A0A2B013C01F80182859385EE
:1008B000A485B58529813A814B815C81281B390B40
:1008C0004A0B5B0BCA01B9010E94E30920E030E04A
:1008D0004AE754E40E9442099B01AC01C301B20102
:1008E0000E949A0A20E030E040E05FE30E949A0A0A
:1008F0009B01AC016D817E818F8198850E94D0081B
:100900009B01AC010E949A0A4B015C012AE037ED81
:1009100043EA5BE30E943D0987FF08C08AE0882E16
:1009200087ED982E83EAA82E8BE3B82ED801169671
:100930008D929D92AD92BC92199729813A814B81FB
:100940005C811A962D933D934D935C931D97F8010E
:1009500082829382A482B5822AE037ED43EA5BE388
:10096000D80116966D917D918D919C9119970E9459
:10097000D00820E030E04FE753E40E949A0A2FEFBE
:100980003FEF4FEF5DE30E94420920E030E0A90114
:100990000E94D1080E94B409162F84B18F6084B9D7
:1009A0008AB1806F8AB9612F60788BE00E94FB0169
:1009B000612F60748AE00E94FB01612F607289E000
:1009C0000E94FB01612F607188E00E94FB01612F92
:1009D000687087E00E94FB01612F647086E00E94CE
:1009E000FB01612F627085E00E94FB01612F617045
:1009F00084E00E94FB01A7019601C701B6010E9495
:100A00004D0B882319F088E191E01AC04601570187
:100A1000E894B7F82FEF3FEF4FE75FE7C501B40168
:100A20000E944D0B81110FC02FEF3FEF4FE75FE7A3
:100A3000C501B4010E943D0918162CF48CE191E027
:100A40000E9450027BC02FEF3FEF4FE75FE4C701EA
:100A5000B6010E94950A18161CF480E291E0F0CFCE
:100A60002FEF3FEF4FE75FECC701B6010E943D0952
:100A700087FDF3CF20E030E0A901C701B6010E9455
:100A80003D0987FF0FC0E0913A01F0913B010190D1
:100A9000F081E02D6DE28AE391E00995F7FAF09498
:100AA000F7F8F0942EE632E143E05AE3C701B601CD
:100AB0000E94D1086B017C010E94B4094B015C01CA
:100AC0000E94E3099B01AC01C701B6010E94D00856
:100AD0006B017C014AE0C501B4010E946202E09111
:100AE0003A01F0913B010190F081E02D6EE28AE342
:100AF00091E0099514E0115009F120E030E040E266
:100B000051E4C701B6010E949A0A4B015C010E94A0
:100B1000B4096B01E12CF12C4AE0C701B6010E9437
:100B20006202C701B6010E94E3099B01AC01C50145
:100B3000B4010E94D0086B017C01DDCF84E291E01A
:100B400028960FB6F894DEBF0FBECDBFDF91CF91D0
:100B50001F910F91FF90EF90DF90CF90BF90AF90DB
:100B60009F908F907F906F905F904F900C94500269
:100B70001F920F920FB60F9211242F933F934F9312
:100B80005F936F937F938F939F93AF93BF93EF93F5
:100B9000FF938AE391E00E943E01FF91EF91BF91A4
:100BA000AF919F918F917F916F915F914F913F9105
:100BB0002F910F900FBE0F901F9018951F920F92BC
:100BC0000FB60F9211242F938F939F93EF93FF9360
:100BD000E0914A01F0914B018081E0915001F09148
:100BE000510182FD12C09081809153018F5F8F73FC
:100BF00020915401821751F0E0915301F0E0E65C3E
:100C0000FE4F958F8093530101C08081FF91EF913A
:100C10009F918F912F910F900FBE0F901F9018955D
:100C20001F920F920FB60F9211242F933F938F9321
:100C30009F93AF93BF9380912D0190912E01A0912E
:100C40002F01B091300130912C0123E0230F2D377B
:100C500020F40196A11DB11D05C026E8230F0296C0
:100C6000A11DB11D20932C0180932D0190932E0185
:100C7000A0932F01B0933001809131019091320106
:100C8000A0913301B09134010196A11DB11D809353
:100C9000310190933201A0933301B0933401BF919D
:100CA000AF919F918F913F912F910F900FBE0F9019
:100CB0001F9018951F920F920FB60F9211242F9329
:100CC0003F934F935F936F937F938F939F93AF93D4
:100CD000BF93EF93FF93E0913501F09136010995B1
:100CE000FF91EF91BF91AF919F918F917F916F9104
:100CF0005F914F913F912F910F900FBE0F901F90DA
:100D000018951F920F920FB60F9211242F933F93B5
:100D10004F935F936F937F938F939F93AF93BF9303
:100D2000CF93EF93FF9329B1C091DB01909109021A
:100D300080910602322F309583239223892B909144
:100D40006D00C227C923C8232093DB01CC23C1F146
:100D5000C0FF05C0E091DC01F091DD010995C1FF04
:100D600005C0E091DE01F091DF010995C2FF05C0E9
:100D7000E091E001F091E1010995C3FF05C0E09128
:100D8000E201F091E3010995C4FF05C0E091E4019F
:100D9000F091E5010995C5FF05C0E091E601F091EC
:100DA000E7010995C6FF05C0E091E801F091E9016E
:100DB0000995C7FF05C0E091EA01F091EB010995A3
:100DC000FF91EF91CF91BF91AF919F918F917F91C3
:100DD0006F915F914F913F912F910F900FBE0F90A8
:100DE0001F9018951F920F920FB60F9211242F93F8
:100DF0003F934F935F936F937F938F939F93AF93A3
:100E0000BF93CF93EF93FF9326B1C091EC019091E4
:100E10000A0280910702322F309583239223892B77
:100E200090916C00C227C923C8232093EC01CC23E6
:100E300051F1C0FF05C0E091ED01F091EE0109957F
:100E4000C1FF05C0E091EF01F091F0010995C2FFEB
:100E500005C0E091F101F091F2010995C3FF05C0D1
:100E6000E091F301F091F4010995C4FF05C0E09110
:100E7000F501F091F6010995C5FF05C0E091F70174
:100E8000F091F8010995FF91EF91CF91BF91AF914A
:100E90009F918F917F916F915F914F913F912F9192
:100EA0000F900FBE0F901F9018951F920F920FB6C4
:100EB0000F9211242F933F934F935F936F937F93E0
:100EC0008F939F93AF93BF93CF93EF93FF9323B1F0
:100ED000C091F90190910B0280910802322F309558
:100EE00083239223892B90916B00C227C923C823A7
:100EF0002093F901CC2351F1C0FF05C0E091FA0124
:100F0000F091FB010995C1FF05C0E091FC01F09152
:100F1000FD010995C2FF05C0E091FE01F091FF01BE
:100F20000995C3FF05C0E0910002F0910102099507
:100F3000C4FF05C0E0910202F09103020995C5FFCC
:100F400005C0E0910402F09105020995FF91EF912F
:100F5000CF91BF91AF919F918F917F916F915F9151
:100F60004F913F912F910F900FBE0F901F901895AA
:100F70001F920F920FB60F9211242F933F934F930E
:100F80005F936F937F938F939F93AF93BF93EF93F1
:100F9000FF93E091D901F091DA010995FF91EF916A
:100FA000BF91AF919F918F917F916F915F914F9181
:100FB0003F912F910F900FBE0F901F9018951F9289
:100FC0000F920FB60F9211242F933F934F935F937D
:100FD0006F937F938F939F93AF93BF93EF93FF9301
:100FE000E091D701F091D8010995FF91EF91BF9160
:100FF000AF919F918F917F916F915F914F913F91B1
:101000002F910F900FBE0F901F901895789484B574
:10101000826084BD84B5816084BD85B5826085BDF4
:1010200085B5816085BD80916E00816080936E0082
:101030001092810080918100826080938100809174
:101040008100816080938100809180008160809325
:1010500080008091B10084608093B1008091B000E5
:1010600081608093B00080917A00846080937A00E0
:1010700080917A00826080937A0080917A0081600A
:1010800080937A0080917A00806880937A00109231
:10109000C100E0914A01F0914B0192E09083E09110
:1010A0004601F09147011082E0914801F091490119
:1010B0008FEC808310925201E0914E01F0914F012C
:1010C00086E08083E0914C01F0914D018081806148
:1010D0008083E0914C01F0914D0180818860808394
:1010E000E0914C01F0914D01808180688083E09116
:1010F0004C01F0914D0180818F7D808380E1809350
:101100008100109280009093390180E197E29093E2
:10111000380180933701909387008093860082E1A5
:10112000809381008AEE92E090933601809335019E
:1011300081E080936F0063E084EC92E00E948C0079
:101140000E94C801FDCFEAE3F1E01382128288EE2B
:1011500093E0A0E0B0E084839583A683B7838AE020
:1011600091E09183808385EC90E09587848784EC7F
:1011700090E09787868780EC90E0918B808B81EC64
:1011800090E0938B828B82EC90E0958B848B86EC45
:1011900090E0978B868B118E128E138E148E08958D
:1011A0005058BB27AA270E94E8080C945B0A0E94AB
:1011B0004D0A38F00E94540A20F039F49F3F19F488
:1011C00026F40C944A0A0EF4E095E7FB0C94440ACA
:1011D000E92F0E946C0A58F3BA1762077307840755
:1011E000950720F079F4A6F50C948E0A0EF4E0959C
:1011F0000B2EBA2FA02D0B01B90190010C01CA01D1
:10120000A0011124FF27591B99F0593F50F4503E7B
:1012100068F11A16F040A22F232F342F4427585F6D
:10122000F3CF469537952795A795F0405395C9F785
:101230007EF41F16BA0B620B730B840BBAF091503D
:10124000A1F0FF0FBB1F661F771F881FC2F70EC0DC
:10125000BA0F621F731F841F48F4879577956795AF
:10126000B795F7959E3F08F0B0CF9395880F08F09B
:101270009927EE0F9795879508950E94200A08F404
:1012800081E008950E9456090C945B0A0E94540A5A
:1012900058F00E944D0A40F029F45F3F29F00C9469
:1012A000440A51110C948F0A0C944A0A0E946C0A49
:1012B00068F39923B1F3552391F3951B550BBB2785
:1012C000AA2762177307840738F09F5F5F4F220FCA
:1012D000331F441FAA1FA9F335D00E2E3AF0E0E8C1
:1012E00032D091505040E695001CCAF72BD0FE2F0B
:1012F00029D0660F771F881FBB1F2617370748079F
:10130000AB07B0E809F0BB0B802DBF01FF27935856
:101310005F4F3AF09E3F510578F00C94440A0C94CC
:101320008F0A5F3FE4F3983ED4F3869577956795EF
:10133000B795F7959F5FC9F7880F911D969587958B
:1013400097F90895E1E0660F771F881FBB1F6217AA
:1013500073078407BA0720F0621B730B840BBA0B68
:10136000EE1F88F7E09508950E94740A88F09F5751
:1013700098F0B92F9927B751B0F0E1F0660F771FB9
:10138000881F991F1AF0BA95C9F714C0B13091F0AF
:101390000E948E0AB1E008950C948E0A672F782F70
:1013A0008827B85F39F0B93FCCF386957795679574
:1013B000B395D9F73EF490958095709561957F4FE0
:1013C0008F4F9F4F0895E89409C097FB3EF4909586
:1013D0008095709561957F4F8F4F9F4F9923A9F00E
:1013E000F92F96E9BB279395F6958795779567959D
:1013F000B795F111F8CFFAF4BB0F11F460FF1BC0E1
:101400006F5F7F4F8F4F9F4F16C0882311F096E973
:1014100011C0772321F09EE8872F762F05C0662321
:1014200071F096E8862F70E060E02AF09A95660FDA
:10143000771F881FDAF7880F9695879597F9089593
:10144000990F0008550FAA0BE0E8FEEF16161706D5
:10145000E807F907C0F012161306E407F50798F03D
:10146000621B730B840B950B39F40A2661F0232B56
:10147000242B252B21F408950A2609F4A140A695D2
:101480008FEF811D811D089597F99F6780E870E0B7
:1014900060E008959FEF80EC089500240A941616EA
:1014A000170618060906089500240A941216130652
:1014B000140605060895092E0394000C11F48823E0
:1014C00052F0BB0F40F4BF2B11F460FF04C06F5FFC
:1014D0007F4F8F4F9F4F089557FD9058440F551FD2
:1014E00059F05F3F71F04795880F97FB991F61F0A6
:1014F0009F3F79F087950895121613061406551F1D
:10150000F2CF4695F1DF08C0161617061806991F88
:10151000F1CF86957105610508940895E894BB277D
:1015200066277727CB0197F908950E94200A08F4CF
:101530008FEF08950E94AD0A0C945B0A0E944D0A39
:1015400038F00E94540A20F0952311F00C94440ABC
:101550000C944A0A11240C948F0A0E946C0A70F3AE
:10156000959FC1F3950F50E0551F629FF001729F48
:10157000BB27F00DB11D639FAA27F00DB11DAA1F57
:10158000649F6627B00DA11D661F829F2227B00DA4
:10159000A11D621F739FB00DA11D621F839FA00D2F
:1015A000611D221F749F3327A00D611D231F849F7F
:1015B000600D211D822F762F6A2F11249F575040D6
:1015C0009AF0F1F088234AF0EE0FFF1FBB1F661F51
:1015D000771F881F91505040A9F79E3F510580F01A
:1015E0000C94440A0C948F0A5F3FE4F3983ED4F3C2
:1015F000869577956795B795F795E7959F5FC1F7BE
:10160000FE2B880F911D9695879597F9089519F4EB
:1016100016F40C944A0A0C94520B0E94740AB8F304
:101620009923C9F3B6F39F57550B87FF0E94600BB0
:101630000024A0E640EA900180585695979528F43A
:10164000805C660F771F881F20F026173707480732
:1016500030F4621B730B840B202931294A2BA69589
:1016600017940794202531254A2758F7660F771FCE
:10167000881F20F026173707480730F4620B730BDA
:10168000840B200D311D411DA09581F7B901842FD8
:101690009158880F9695879508950E94200A880B87
:1016A000990B08959F3F31F0915020F487957795DD
:1016B0006795B795880F911D9695879597F9089529
:1016C00091505040660F771F881FD2F70895A1E20E
:1016D0001A2EAA1BBB1BFD010DC0AA1FBB1FEE1FAC
:1016E000FF1FA217B307E407F50720F0A21BB30BF7
:1016F000E40BF50B661F771F881F991F1A9469F773
:1017000060957095809590959B01AC01BD01CF01CE
:101710000895EE0FFF1F0590F491E02D0994CF93EB
:10172000DF938230910510F482E090E0E0910E02A8
:10173000F0910F0220E030E0C0E0D0E0309711F1EE
:101740004081518148175907C0F04817590761F483
:1017500082819381209719F09B838A832BC0909379
:101760000F0280930E0226C02115310519F0421791
:10177000530718F49A01BE01DF01EF010280F381E3
:10178000E02DDCCF2115310509F1281B390B243060
:10179000310590F412968D919C9113976115710506
:1017A00021F0FB019383828304C090930F02809306
:1017B0000E02FD01329644C0FD01E20FF31F81933A
:1017C0009193225031092D933C933AC020910C0201
:1017D00030910D02232B41F420910201309103013D
:1017E00030930D0220930C022091000130910101F1
:1017F0002115310541F42DB73EB7409104015091B8
:101800000501241B350BE0910C02F0910D02E2174B
:10181000F307A0F42E1B3F0B2817390778F0AC0113
:101820004E5F5F4F2417350748F04E0F5F1F5093F0
:101830000D0240930C028193919302C0E0E0F0E02E
:10184000CF01DF91CF9108950F931F93CF93DF9333
:10185000009709F48CC0FC01329713821282009128
:101860000E0210910F020115110581F420813181C2
:10187000820F931F20910C0230910D022817390717
:1018800079F5F0930D02E0930C0271C0D80140E0AD
:1018900050E0AE17BF0750F412962D913C9113976C
:1018A000AD012115310509F1D901F3CF9D01DA010F
:1018B0003383228360817181860F971F821793077C
:1018C00069F4EC0128813981260F371F2E5F3F4FC5
:1018D000318320838A819B8193838283452B29F4E2
:1018E000F0930F02E0930E0242C01396FC93EE9326
:1018F0001297ED01499159919E01240F351FE2176E
:10190000F30771F480819181840F951F02961196DF
:101910009C938E938281938113969C938E931297BE
:10192000E0E0F0E0D80112968D919C91139700971A
:1019300019F0F8018C01F6CF8D919C9198012E5FE2
:101940003F4F820F931F20910C0230910D022817F8
:10195000390769F4309729F410920F0210920E02A1
:1019600002C01382128210930D0200930C02DF91C9
:10197000CF911F910F91089581E090E0F8940C941D
:06198000C10CF894FFCF3A
:10198600000010028000000000005F01C800F700A0
:10199600A601280106011A016E616E00696E6600D5
:0819A6006F7666000D0A0000D7
:00000001FF
